11706233006202110
330-06-2021FNB                                                                                   25500500000645555929710263518003904237130094      Record Tests      25065500030607093217751700Successful Collection                   29-06-2021
330-06-2021FNB                                                                                   25500500000645555929710652042003908776213204      Monday Testies    25065500030075069468811700CL05                                    29-06-2021
330-06-2021FNB                                                                                   25500500000645555929710709757003904816363392      Hello  Testers    25065500030709995687791700Successful Collection                   29-06-2021
330-06-2021FNB                                                                                   25500500000645555929710869797003909607210066      Sugar Ice         25065500030900701377781700AC03                                    29-06-2021
900000000409619